{
  "contractName": "Lease",
  "abi": [
    {
      "inputs": [
        {
          "internalType": "address",
          "name": "_landlord",
          "type": "address"
        },
        {
          "internalType": "bytes32",
          "name": "_leaseHash",
          "type": "bytes32"
        },
        {
          "internalType": "uint256",
          "name": "_rentAmt",
          "type": "uint256"
        },
        {
          "internalType": "bytes32",
          "name": "_doc1Hash",
          "type": "bytes32"
        },
        {
          "internalType": "bytes32",
          "name": "_doc2Hash",
          "type": "bytes32"
        },
        {
          "internalType": "string",
          "name": "_leaseid",
          "type": "string"
        }
      ],
      "payable": false,
      "stateMutability": "nonpayable",
      "type": "constructor"
    },
    {
      "anonymous": false,
      "inputs": [
        {
          "indexed": false,
          "internalType": "uint256",
          "name": "timestamp",
          "type": "uint256"
        },
        {
          "indexed": true,
          "internalType": "address",
          "name": "payer",
          "type": "address"
        }
      ],
      "name": "rentNotReceived",
      "type": "event"
    },
    {
      "anonymous": false,
      "inputs": [
        {
          "indexed": false,
          "internalType": "uint256",
          "name": "timestamp",
          "type": "uint256"
        },
        {
          "indexed": false,
          "internalType": "address",
          "name": "payer",
          "type": "address"
        }
      ],
      "name": "rentReceived",
      "type": "event"
    },
    {
      "anonymous": false,
      "inputs": [
        {
          "indexed": false,
          "internalType": "uint256",
          "name": "timestamp",
          "type": "uint256"
        },
        {
          "indexed": false,
          "internalType": "address",
          "name": "payer",
          "type": "address"
        },
        {
          "indexed": false,
          "internalType": "uint256",
          "name": "months",
          "type": "uint256"
        }
      ],
      "name": "rentSent",
      "type": "event"
    },
    {
      "constant": true,
      "inputs": [],
      "name": "verifyLease",
      "outputs": [
        {
          "internalType": "bytes32",
          "name": "",
          "type": "bytes32"
        }
      ],
      "payable": false,
      "stateMutability": "view",
      "type": "function"
    },
    {
      "constant": true,
      "inputs": [],
      "name": "getLeaseId",
      "outputs": [
        {
          "internalType": "string",
          "name": "",
          "type": "string"
        }
      ],
      "payable": false,
      "stateMutability": "view",
      "type": "function"
    },
    {
      "constant": false,
      "inputs": [
        {
          "internalType": "bytes32",
          "name": "_paymentHash",
          "type": "bytes32"
        },
        {
          "internalType": "uint256",
          "name": "_months",
          "type": "uint256"
        }
      ],
      "name": "payRent",
      "outputs": [],
      "payable": false,
      "stateMutability": "nonpayable",
      "type": "function"
    },
    {
      "constant": true,
      "inputs": [],
      "name": "getNextPayment",
      "outputs": [
        {
          "internalType": "bytes32",
          "name": "",
          "type": "bytes32"
        }
      ],
      "payable": false,
      "stateMutability": "view",
      "type": "function"
    },
    {
      "constant": false,
      "inputs": [
        {
          "internalType": "bool",
          "name": "_choice",
          "type": "bool"
        },
        {
          "internalType": "address",
          "name": "_tenant",
          "type": "address"
        }
      ],
      "name": "confirmRent",
      "outputs": [],
      "payable": false,
      "stateMutability": "nonpayable",
      "type": "function"
    }
  ],
  "bytecode": "0x608060405234801561001057600080fd5b506040516106fb3803806106fb833981810160405260c081101561003357600080fd5b8101908080519060200190929190805190602001909291908051906020019092919080519060200190929190805190602001909291908051604051939291908464010000000082111561008557600080fd5b8382019150602082018581111561009b57600080fd5b82518660018202830111640100000000821117156100b857600080fd5b8083526020830192505050908051906020019080838360005b838110156100ec5780820151818401526020810190506100d1565b50505050905090810190601f1680156101195780820380516001836020036101000a031916815260200191505b50604052505050856000806101000a81548173ffffffffffffffffffffffffffffffffffffffff021916908373ffffffffffffffffffffffffffffffffffffffff16021790555084600181905550836002819055508260038190555081600481905550806005908051906020019061019292919061019e565b50505050505050610243565b828054600181600116156101000203166002900490600052602060002090601f016020900481019282601f106101df57805160ff191683800117855561020d565b8280016001018555821561020d579182015b8281111561020c5782518255916020019190600101906101f1565b5b50905061021a919061021e565b5090565b61024091905b8082111561023c576000816000905550600101610224565b5090565b90565b6104a9806102526000396000f3fe608060405234801561001057600080fd5b50600436106100575760003560e01c80634ae01cdc1461005c5780636e7ae3f01461007a5780636f7bb2cb146100fd578063a53919321461011b578063fbe164c31461016b575b600080fd5b6100646101a3565b6040518082815260200191505060405180910390f35b6100826101ad565b6040518080602001828103825283818151815260200191508051906020019080838360005b838110156100c25780820151818401526020810190506100a7565b50505050905090810190601f1680156100ef5780820380516001836020036101000a031916815260200191505b509250505060405180910390f35b61010561024f565b6040518082815260200191505060405180910390f35b6101696004803603604081101561013157600080fd5b81019080803515159060200190929190803573ffffffffffffffffffffffffffffffffffffffff169060200190929190505050610259565b005b6101a16004803603604081101561018157600080fd5b810190808035906020019092919080359060200190929190505050610382565b005b6000600154905090565b606060058054600181600116156101000203166002900480601f0160208091040260200160405190810160405280929190818152602001828054600181600116156101000203166002900480156102455780601f1061021a57610100808354040283529160200191610245565b820191906000526020600020905b81548152906001019060200180831161022857829003601f168201915b5050505050905090565b6000600154905090565b6000809054906101000a900473ffffffffffffffffffffffffffffffffffffffff1673ffffffffffffffffffffffffffffffffffffffff163373ffffffffffffffffffffffffffffffffffffffff16146102b257600080fd5b60011515821515141561032f577fe6fa01fab8b5bc1e1cc07674dfed0c8855812b2bc0f5310bead1f486fe65ef0a4282604051808381526020018273ffffffffffffffffffffffffffffffffffffffff1673ffffffffffffffffffffffffffffffffffffffff1681526020019250505060405180910390a161037e565b8073ffffffffffffffffffffffffffffffffffffffff167f0c0e2cc918d71ef05e170438d8ce7f710b656a6fee1cf0fc73c40dd4bb2041ea426040518082815260200191505060405180910390a25b5050565b6000809054906101000a900473ffffffffffffffffffffffffffffffffffffffff1673ffffffffffffffffffffffffffffffffffffffff163373ffffffffffffffffffffffffffffffffffffffff1614156103dc57600080fd5b60018110156103ea57600080fd5b81600681905550601e810242016007819055507f9a34c68d96c796a7121a652654f5482b38076a53f1aa11350e05b217b085a4b3423383604051808481526020018373ffffffffffffffffffffffffffffffffffffffff1673ffffffffffffffffffffffffffffffffffffffff168152602001828152602001935050505060405180910390a1505056fea265627a7a72315820ffb9289f77beb4d78ad8389349f606015e6db83e1b7cca12e885bee3418b68ed64736f6c63430005100032",
  "source": "// SPDX-License-Identifier: UNLICENSED\npragma solidity ^0.5.16;\n\ncontract Lease{\n\n    // Lease Agreement\n    address landlord;\n    bytes32 leaseHash;\n    uint256 rentAmt;\n    bytes32 doc1Hash;\n    bytes32 doc2Hash;\n    string leaseid;\n\n    constructor(address _landlord, bytes32 _leaseHash, uint256 _rentAmt, bytes32 _doc1Hash, bytes32 _doc2Hash, string memory _leaseid) public {\n        //console.log(\"Deploying a new lease contract under: \", _landlord);\n        landlord = _landlord;\n        leaseHash = _leaseHash;\n        rentAmt = _rentAmt;\n        doc1Hash = _doc1Hash;\n        doc2Hash = _doc2Hash;\n        leaseid = _leaseid;\n    }\n\n    function verifyLease() public view returns(bytes32) {\n        return leaseHash;\n    }\n\n    function getLeaseId() public view returns(string memory) {\n        return leaseid;\n    }\n\n    // Payment (Tenant)\n    bytes32 paymentHash;\n    uint256 nextPayment;\n    event rentSent(uint256 timestamp, address payer, uint256 months);\n    function payRent(bytes32 _paymentHash, uint256 _months) public {\n        require(msg.sender != landlord);\n        require(_months >= 1);\n        paymentHash = _paymentHash;\n        nextPayment = block.timestamp + (_months*30);\n        emit rentSent(block.timestamp, msg.sender, _months);\n    }\n\n    function getNextPayment() public view returns(bytes32) {\n        return leaseHash;\n    }\n\n    // Payment (Landlord)\n    event rentReceived(uint256 timestamp, address payer);\n    event rentNotReceived(uint256 timestamp, address indexed payer);\n    function confirmRent(bool _choice, address _tenant) public{\n        require(msg.sender == landlord);\n        if(_choice == true){\n            emit rentReceived(block.timestamp, _tenant);\n        }\n        else{\n            emit rentNotReceived(block.timestamp, _tenant);\n        }\n    }\n}",
  "sourcePath": "/home/kaos/GitHub/lease-protect/truffleTest/contracts/Lease.sol",
  "compiler": {
    "name": "solc",
    "version": "0.5.16+commit.9c3226ce.Emscripten.clang"
  },
  "schemaVersion": "3.4.16",
  "updatedAt": "2024-03-16T17:37:45.285Z",
  "networkType": "ethereum",
  "devdoc": {
    "methods": {}
  },
  "userdoc": {
    "methods": {}
  }
}